:030000000209E909
:0C09E900787FE4F6D8FD758120020A300A
:0C0B940054494D453A00444154453A0094
:020BA000C10092
:100B0F007F38120B887F0E120B887F01120B887FA4
:0E0B1F0006120B887F0C120B887F80020B8859
:0C0B88008FA0C2B0D2B1120B5CC2B1222F
:0A0B460054F0C4540FF5114430FFC1
:0C0B50008FA0D2B0D2B1120B5CC2B12257
:100AEA008B128A138914AB12AA13A914120B2D6044
:100AFA00130514E5147002051314F9120B2DFF12D5
:050B0A000B5080E22207
:0E0B5C00E4FFFE0FBF00010EEF64C94E70F5FE
:010B6A002268
:10080000120B6B7FD0120A75E4FF120A75E4FF1217
:100810000A757F20120A757F10120A757F06120A68
:10082000757F18120A757F06120A757F21120A75E4
:10083000120B7A120B0F7F80120B887BFF7A0B79D9
:1008400094120AEA7FC0120B887BFF7A0B799A1206
:020850000AEAB2
:10085200120B6B7FD0120A75E4FF120A75120B6B32
:100862007FD1120A75120AB2850D0953097F120B44
:100872007A120B6B7FD0120A757F01120A75120B66
:100882006B7FD1120A75120AB2850D0C530C7F12BE
:100892000B7A120B6B7FD0120A757F02120A751245
:1008A2000B6B7FD1120A75120AB2850D0B530B3FE7
:1008B200120B7A120B6B7FD0120A757F03120A7524
:1008C200120B6B7FD1120A75120AB2850D0A530AF6
:1008D2000F120B7A120B6B7FD0120A757F04120A69
:1008E20075120B6B7FD1120A75120AB2850D08536D
:1008F200083F120B7A120B6B7FD0120A757F05121A
:100902000A75120B6B7FD1120A75120AB2850D0E8F
:10091200530E0F120B7A120B6B7FD0120A757F06E1
:10092200120A75120B6B7FD1120A75120AB2850D6B
:100932000F530F3F120B7AE50B540FF510E50B54D2
:10094200F0C4540FF5117F86120B88E5114430FF75
:10095200120B50E5104430FF120B507F3A120B502D
:10096200E50C540FF510E50C120B46E5104430FF70
:10097200120B507F3A120B50E509540FF510E5099E
:10098200120B46E5104430FF120B50E508540FF5E8
:1009920010E50854F0C4540FF5117FC6120B88E518
:1009A200114430FF120B50E5104430FF120B507F00
:1009B2003A120B50E50E540FF510E50E120B46E5F8
:1009C200104430FF120B507F3A120B50E50F540FB8
:1009D200F510E50F120B46E5104430FF120B507F65
:0409E200C6120B88A6
:0309E600020852B2
:100A75007D80AB07E4FAEAC394087480948050142F
:100A8500EB5D24FF9290D291120B5CC291EB25E0B5
:100A9500FB0A80E2A290E433FDD291120B5CC29175
:0C0AA500AF05EF64017005120B7A80FEB3
:010AB1002222
:0E0B7A00D291C290120B5CD290C291020B5C21
:100AB200C201E4FDEDD39407748094805027D29153
:100AC200120B5CA2909201C291300103430D01ED21
:100AD200D39406748094805009E50D25E0F50D123B
:070AE2000B5C0D80CFAF0D8E
:010AE90022EA
:0F0B6B00D291D290120B5CC290120B5CC29122FD
:1009F500020800E493A3F8E493A34003F68001F210
:100A050008DFF48029E493A3F85407240CC8C33302
:100A1500C4540F4420C8834004F456800146F6DFD1
:100A2500E4800B0102040810204080900BA0E47EB6
:100A3500019360BCA3FF543F30E509541FFEE493C6
:100A4500A360010ECF54C025E060A840B8E493A38D
:100A5500FAE493A3F8E493A3C8C582C8CAC583CAB8
:100A6500F0A3C8C582C8CAC583CADFE9DEE780BE70
:010BA2000052
:100B2D00BB010689828A83E0225002E722BBFE02C6
:090B3D00E32289828A83E49322F9
:00000001FF
